{
    "_format": "hh-sol-artifact-1",
    "contractName": "messages",
    "sourceName": "contracts/messages.sol",
    "abi": [
        {
            "inputs": [],
            "stateMutability": "nonpayable",
            "type": "constructor"
        },
        {
            "anonymous": false,
            "inputs": [
                {
                    "indexed": true,
                    "internalType": "address",
                    "name": "from",
                    "type": "address"
                },
                {
                    "indexed": false,
                    "internalType": "uint256",
                    "name": "timestamp",
                    "type": "uint256"
                },
                {
                    "indexed": false,
                    "internalType": "string",
                    "name": "message",
                    "type": "string"
                }
            ],
            "name": "NewMessage",
            "type": "event"
        },
        {
            "inputs": [],
            "name": "getAllMessages",
            "outputs": [
                {
                    "components": [
                        {
                            "internalType": "address",
                            "name": "messager",
                            "type": "address"
                        },
                        {
                            "internalType": "string",
                            "name": "message",
                            "type": "string"
                        },
                        {
                            "internalType": "uint256",
                            "name": "timestamp",
                            "type": "uint256"
                        }
                    ],
                    "internalType": "struct messages.Message[]",
                    "name": "",
                    "type": "tuple[]"
                }
            ],
            "stateMutability": "view",
            "type": "function"
        },
        {
            "inputs": [],
            "name": "getTotalMessages",
            "outputs": [
                {
                    "internalType": "uint256",
                    "name": "",
                    "type": "uint256"
                }
            ],
            "stateMutability": "view",
            "type": "function"
        },
        {
            "inputs": [
                {
                    "internalType": "string",
                    "name": "_message",
                    "type": "string"
                }
            ],
            "name": "messageUser",
            "outputs": [],
            "stateMutability": "nonpayable",
            "type": "function"
        }
    ],
    "bytecode": "0x608060405234801561001057600080fd5b50610b6c806100206000396000f3fe608060405234801561001057600080fd5b50600436106100415760003560e01c8063147e91081461004657806353f5e38014610064578063efaf7c2914610082575b600080fd5b61004e61009e565b60405161005b9190610880565b60405180910390f35b61006c6100e9565b60405161007991906107e9565b60405180910390f35b61009c60048036038101906100979190610621565b61023a565b005b60006100e16040518060400160405280601981526020017f7765206861766520256420746f74616c206d65737361676573000000000000008152506000546103b2565b600054905090565b60606001805480602002602001604051908101604052809291908181526020016000905b8282101561023157838290600052602060002090600302016040518060600160405290816000820160009054906101000a900473ffffffffffffffffffffffffffffffffffffffff1673ffffffffffffffffffffffffffffffffffffffff1673ffffffffffffffffffffffffffffffffffffffff16815260200160018201805461019690610a66565b80601f01602080910402602001604051908101604052809291908181526020018280546101c290610a66565b801561020f5780601f106101e45761010080835404028352916020019161020f565b820191906000526020600020905b8154815290600101906020018083116101f257829003601f168201915b505050505081526020016002820154815250508152602001906001019061010d565b50505050905090565b600160008082825461024c9190610992565b925050819055506102936040518060400160405280600981526020017f6d6573736167653a200000000000000000000000000000000000000000000000815250338361044e565b600160405180606001604052803373ffffffffffffffffffffffffffffffffffffffff16815260200183815260200142815250908060018154018082558091505060019003906000526020600020906003020160009091909190915060008201518160000160006101000a81548173ffffffffffffffffffffffffffffffffffffffff021916908373ffffffffffffffffffffffffffffffffffffffff1602179055506020820151816001019080519060200190610352929190610516565b506040820151816002015550503373ffffffffffffffffffffffffffffffffffffffff167f0ff94fec3112de81726d79117e091c7c9d47da8a38c73e8cec7ee350a61898a642836040516103a792919061089b565b60405180910390a250565b61044a82826040516024016103c8929190610850565b6040516020818303038152906040527f9710a9d0000000000000000000000000000000000000000000000000000000007bffffffffffffffffffffffffffffffffffffffffffffffffffffffff19166020820180517bffffffffffffffffffffffffffffffffffffffffffffffffffffffff83818316178352505050506104ed565b5050565b6104e88383836040516024016104669392919061080b565b6040516020818303038152906040527fe0e9ad4f000000000000000000000000000000000000000000000000000000007bffffffffffffffffffffffffffffffffffffffffffffffffffffffff19166020820180517bffffffffffffffffffffffffffffffffffffffffffffffffffffffff83818316178352505050506104ed565b505050565b60008151905060006a636f6e736f6c652e6c6f679050602083016000808483855afa5050505050565b82805461052290610a66565b90600052602060002090601f016020900481019282610544576000855561058b565b82601f1061055d57805160ff191683800117855561058b565b8280016001018555821561058b579182015b8281111561058a57825182559160200191906001019061056f565b5b509050610598919061059c565b5090565b5b808211156105b557600081600090555060010161059d565b5090565b60006105cc6105c7846108fc565b6108cb565b9050828152602081018484840111156105e457600080fd5b6105ef848285610a24565b509392505050565b600082601f83011261060857600080fd5b81356106188482602086016105b9565b91505092915050565b60006020828403121561063357600080fd5b600082013567ffffffffffffffff81111561064d57600080fd5b610659848285016105f7565b91505092915050565b600061066e838361077b565b905092915050565b61067f816109e8565b82525050565b61068e816109e8565b82525050565b600061069f8261093c565b6106a9818561095f565b9350836020820285016106bb8561092c565b8060005b858110156106f757848403895281516106d88582610662565b94506106e383610952565b925060208a019950506001810190506106bf565b50829750879550505050505092915050565b600061071482610947565b61071e8185610970565b935061072e818560208601610a33565b61073781610b25565b840191505092915050565b600061074d82610947565b6107578185610981565b9350610767818560208601610a33565b61077081610b25565b840191505092915050565b60006060830160008301516107936000860182610676565b50602083015184820360208601526107ab8282610709565b91505060408301516107c060408601826107cb565b508091505092915050565b6107d481610a1a565b82525050565b6107e381610a1a565b82525050565b600060208201905081810360008301526108038184610694565b905092915050565b600060608201905081810360008301526108258186610742565b90506108346020830185610685565b81810360408301526108468184610742565b9050949350505050565b6000604082019050818103600083015261086a8185610742565b905061087960208301846107da565b9392505050565b600060208201905061089560008301846107da565b92915050565b60006040820190506108b060008301856107da565b81810360208301526108c28184610742565b90509392505050565b6000604051905081810181811067ffffffffffffffff821117156108f2576108f1610af6565b5b8060405250919050565b600067ffffffffffffffff82111561091757610916610af6565b5b601f19601f8301169050602081019050919050565b6000819050602082019050919050565b600081519050919050565b600081519050919050565b6000602082019050919050565b600082825260208201905092915050565b600082825260208201905092915050565b600082825260208201905092915050565b600061099d82610a1a565b91506109a883610a1a565b9250827fffffffffffffffffffffffffffffffffffffffffffffffffffffffffffffffff038211156109dd576109dc610a98565b5b828201905092915050565b60006109f3826109fa565b9050919050565b600073ffffffffffffffffffffffffffffffffffffffff82169050919050565b6000819050919050565b82818337600083830152505050565b60005b83811015610a51578082015181840152602081019050610a36565b83811115610a60576000848401525b50505050565b60006002820490506001821680610a7e57607f821691505b60208210811415610a9257610a91610ac7565b5b50919050565b7f4e487b7100000000000000000000000000000000000000000000000000000000600052601160045260246000fd5b7f4e487b7100000000000000000000000000000000000000000000000000000000600052602260045260246000fd5b7f4e487b7100000000000000000000000000000000000000000000000000000000600052604160045260246000fd5b6000601f19601f830116905091905056fea26469706673582212202ec51f5fbf2f27e6df76691578ceebac799f7cf6562cec2f6ff7c0b7eff1064964736f6c63430008000033",
    "linkReferences": {},
    "deployedLinkReferences": {}
}